:100000000C9434000C9449000C9449000C94490061
:100010000C9449000C9449000C9449000C9449003C
:100020000C9449000C9449000C9449000C9449002C
:100030000C9449000C9449000C9449000C9449001C
:100040000C9449000C9449000C9449000C9449000C
:100050000C9449000C9449000C9449000C944900FC
:100060000C9449000C94490011241FBECFEFD8E036
:10007000DEBFCDBF11E0A0E0B1E0E4E5F5E002C0F5
:1000800005900D92A235B107D9F70E94F7010C94A3
:10009000A8020C94000080E480937C0087E88093A1
:1000A0007A00089590917C00987F90937C009091C5
:1000B0007C008770892B80937C0080917A0080641B
:1000C00080937A0080917A0084FFFCCF80917A003F
:1000D000806180937A002091780030917900C90185
:1000E000089595B1282F207F9F70292B25B9289836
:1000F000299A22E0922F9A95F1F72998E0E9F1E008
:100100003197F1F795B18295807F9F70982B95B9C3
:10011000299A2A95F1F7299880EA9FE00197F1F74B
:10012000089595B1282F207F9F70292B25B9289AF3
:10013000299A22E0922F9A95F1F72998E0E9F1E0C7
:100140003197F1F795B18295807F9F70982B95B983
:10015000299A2A95F1F7299880EA9FE00197F1F70B
:100160000895FC012081222331F132E060E971E041
:1001700040EA5FE085B1922F907F8F70982B95B900
:10018000289A299A832F8A95F1F72998CB0101970C
:10019000F1F785B12295207F8F70282B25B9299AF8
:1001A000832F8A95F1F72998CA010197F1F72181E8
:1001B00031962223F9F6089585B18F7085B9289874
:1001C000299A92E0892F8A95F1F7299840E951E020
:1001D000FA013197F1F785B18F70806185B9299A5D
:1001E000892F8A95F1F7299820EA3FE0F9013197A4
:1001F000F1F7F9013197F1F785B18F70806885B912
:100200002898299A892F8A95F1F72998FA01319728
:10021000F1F785B18F7085B9299A9A95F1F72998E8
:10022000C9010197F1F708958FEF84B980E49CE943
:100230000197F1F785B18F7085B92898299A92E0D6
:10024000892F8A95F1F7299840E951E0FA01319711
:10025000F1F785B18F70806285B9299A892F8A95C7
:10026000F1F7299820EA3FE0F9013197F1F785B1DC
:100270008F70806285B92898299A892F8A95F1F71D
:100280002998FA013197F1F785B18F70806885B9A7
:10029000299A892F8A95F1F72998F9013197F1F771
:1002A00085B18F7085B92898299A892F8A95F1F799
:1002B0002998FA013197F1F785B18F70806C85B973
:1002C000299A892F8A95F1F72998F9013197F1F741
:1002D00085B18F7085B92898299A892F8A95F1F769
:1002E0002998FA013197F1F785B18F70806685B949
:1002F000299A892F8A95F1F72998F9013197F1F711
:1003000085B18F7085B92898299A892F8A95F1F738
:100310002998FA013197F1F785B18F70806185B91D
:10032000299A9A95F1F72998C9010197F1F7C9011E
:100330000197F1F70895DA01882371F56031B4F17E
:100340002C91222309F452C0FD0132E060E971E0F2
:1003500040EA5FE085B1922F907F8F70982B95B91E
:10036000289A299A832F8A95F1F72998CB0101972A
:10037000F1F785B12295207F8F70282B25B9299A16
:10038000832F8A95F1F72998CA010197F1F7218106
:1003900031962223F9F60895813091F6603184F682
:1003A0006F7085B1606C8F70806C05C06F7085B1A7
:1003B00060688F70806885B92898299A92E0892FA3
:1003C0008A95F1F72998E0E9F1E03197F1F785B1E5
:1003D0006295607F8F70862B85B9299A9A95F1F77F
:1003E000299880EA9FE00197F1F7AACF0895EF924C
:1003F000FF920F931F93DF93CF93CDB7DEB72A976A
:100400000FB6F894DEBF0FBECDBF0E9414010E944C
:100410004B005098589A229A7E010894E11CF11CD6
:1004200000E911E0489B04C00E94DC004899FCCF21
:1004300080E00E9452002091780030917900293CA0
:10044000310508F43FC0C901895C904086399105A7
:1004500008F442C0C9018F5591408639910508F4CE
:1004600045C0C901855F91408436910508F448C0B4
:10047000C901895592408436910508F44BC0C901E1
:100480008D5B92408639910508F44EC02355334068
:100490002E3A310508F452C086E491E00E94B10082
:1004A00080EC0E947100C7010E94B10020E030E0A2
:1004B000C8010197F1F72F5F3F4F83E128383807D4
:1004C000B9F7B0CFD701E0E0F1E08AE001900D92FA
:1004D0008150E1F72A9AE0CFD701EAE0F1E08AE023
:1004E00001900D928150E1F72A9AD6CFD701E4E12D
:1004F000F1E08AE001900D928150E1F72A9ACCCF89
:10050000D701EEE1F1E08AE001900D928150E1F730
:100510002A98C2CFD701E8E2F1E08AE001900D927B
:100520008150E1F72A98B8CFD701E2E3F1E08AE001
:1005300001900D928150E1F72A98AECFD701ECE3FC
:10054000F1E08AE001900D928150E1F72A98A4CF62
:04055000F894FFCF4D
:100554003230204465677265650032332044656734
:10056400726565003235204465677265650032370F
:100574002044656772656500323920446567726599
:100584006500333120446567726565003333204468
:1005940065677265650054656D7072617475726526
:0205A400000055
:00000001FF
